:020000040800F2
:10000000002000200900000880B588B000AF144B24
:10001000FB61144BBB61144B7B61BB693B6107E027
:100020003B691A1D3A61FA69111DF96112681A607B
:100030007A693B699A42F3D80C4BFB600C4BBB606E
:10004000FB687B6004E07B681A1D7A6000221A60FE
:10005000BA687B689A42F6D800F00CF8FEE7C04612
:100060009404000800000020000000200000002090
:100070000000002098B500AF144B01221A60A023A5
:10008000DB058022D2001A600DE0114B20221A609D
:10009000104B181C00F026F80D4B00221A600D4B77
:1000A000181C00F01FF80C4B181C00F081F9031C01
:1000B0000C1C181C211C094A094B00F055F8031EA2
:1000C000E3D10023181CBD4698BDC0462C10024049
:1000D00014000050400D0300C3F548401F85EB514C
:1000E000B81E094080B582B000AF7860C0467B681A
:1000F0005A1E7A60002BFAD1BD4602B080BDC046C0
:100100008446101C62468C46191C634600E0C046BB
:100110001FB500F0E7F8002801D40021C8421FBD38
:1001200010B500F02BF84042013010BD10B500F0C2
:10013000D9F8002801DB002010BD012010BDC04609
:1001400010B500F0CFF8002801DD002010BD01201F
:1001500010BDC04610B500F055F8002801DC0020A5
:1001600010BD012010BDC04610B500F04BF80028AE
:1001700001DA002010BD012010BDC046F0B55F4679
:100180004D4644465646F0B41F035C00DB0F9946CB
:100190001B4B0E034D00C90F8446360B6D0D8B466D
:1001A00090463F0B640D9D420CD0154B9C4210D0E5
:1001B0000123A54214D0181C3CBC90469946A24687
:1001C000AB46F0BD311C01230143F4D10C4B9C42E2
:1001D000EED13A430123002AEDD10123A542EAD111
:1001E000BE42E8D1C445E6D1CB4506D0002DE2D1D0
:1001F0003043031C581E8341DDE70023DBE7C04684
:10020000FF070000F0B5574645464E46E0B40F03E1
:100210004E00C90F8A4632491D035C0084463F0BDD
:10022000760D90462D0B640DDB0F8E420FD08C4265
:1002300039D0002E10D13843414241418946002C2B
:1002400027D12A4325D1002000290ED108E0391CEE
:1002500001432ED1B44226D0002C0BD09A450DD0AC
:100260005346594201231943081C1CBC9046994629
:10027000A246F0BD2A43F3D09A45F1D1A642EFDC65
:100280001ADA504641424841012341421943081CB1
:10029000EBE74A46002AE1D0584258410122414248
:1002A0001143081CE1E7291C114302D1002EC2D0E2
:1002B000D4E702204042D8E7AF42D1D809D000208D
:1002C000AF42D2D2504641424841012340421843F6
:1002D000CBE7C445C4D80020C445F3D3C5E7C04626
:1002E000FF070000F0B55F464D464446564680463F
:1002F000F0B4061C0803000B84462C484C001F0376
:100300005D00C90F640D8B4691463F0B6D0DDB0FF1
:10031000844212D0854225D0002C14D161460E4370
:1003200070424641002D35D0002E21D05842584110
:10033000012143420B43181C0EE061460220314369
:100340000AD1A5420ED0002D12D13A4310D15B46FE
:10035000594201231943081C3CBC90469946A246C9
:10036000AB46F0BD391C02201143F5D1002CD5D08D
:100370009B45ECD1AC42EADC05DBBC45E7D80FD0AD
:100380000020BC45E8D25846414248414142012044
:100390000843E1E73A43C7D10020002EDCD1D6E77D
:1003A000C845D4D80020C845EDD3D5E7FF070000E5
:1003B0004200120E511C38B5C9B243025D0AC40F87
:1003C000012915DDE02189008C466D071B0B624475
:1003D0000021281C0D0D2D052B431C4D52052B40D3
:1003E000520813435B00E4075B082343191C38BD24
:1003F000002A15D1002D1FD0281C00F02DF80A2846
:100400001DDC0B232A1C1B1ADA40131C021C15329C
:1004100095400F4A1B03121A52051B0B520DD7E7CA
:10042000002D06D080221B0B120313436D07094ACF
:10043000CEE7084A0023CBE700220023C8E7031CCD
:100440000B3B9D402B1C0025E3E7C046FFFF0F80C0
:1004500089030000FF0700001C2101231B049842B0
:1004600001D3000C10391B0A984201D3000A083945
:100470001B09984201D30009043902A2105C4018FC
:100480007047C046040302020101010100000000A0
:040490000000000068
:1004940048656C6C6F20576F726C6421000000001B
:1004A400C3F548400000000000002C420000803FDB
:0404B4000000CF4332
:0400000508000009E6
:00000001FF
