:020000040800F2
:10000000002000200900000880B584B000AF0C4B30
:10001000FB600C4BBB600C4B7B60BB683B6007E03C
:100020003B681A1D3A60FA68111DF96012681A607F
:100030007A683B689A42F3D800F008F8FEE7C046B9
:10004000BC000008000000200400002080B500AFC4
:100050000F4B01221A60A023DB058022D2001A6018
:100060000DE00C4B20221A600B4B181C00F018F806
:10007000084B00221A60084B181C00F011F8074BBF
:100080001B683F2BEDD00023181CBD4680BDC04629
:100090002C10024014000050400D0300000000200E
:1000A00080B582B000AF7860C0467B685A1E7A6027
:0C00B000002BFAD1BD4602B080BDC04656
:0400BC003F00000001
:0400000508000009E6
:00000001FF
