:020000040800F2
:10000000002000200900000880B588B000AF144B24
:10001000FB61144BBB61144B7B61BB693B6107E027
:100020003B691A1D3A61FA69111DF96112681A607B
:100030007A693B699A42F3D80C4BFB600C4BBB606E
:10004000FB687B6004E07B681A1D7A6000221A60FE
:10005000BA687B689A42F6D800F00CF8FEE7C04612
:10006000E40000080000002004000020040000203C
:100070000800002080B500AF0F4B01221A60A023BA
:10008000DB058022D2001A600DE00C4B20221A60A2
:100090000B4B181C00F018F8084B00221A60084B94
:1000A000181C00F011F8074B1B68002BEDD0002343
:1000B000181CBD4680BDC0462C10024014000050E4
:1000C000400D03000400002080B582B000AF7860CE
:1000D000C0467B685A1E7A60002BFAD1BD4602B03A
:0400E00080BDC046D9
:0400E4003F000000D9
:0400000508000009E6
:00000001FF
