:020000040800F2
:10000000002000200900000880B588B000AF144B24
:10001000FB61144BBB61144B7B61BB693B6107E027
:100020003B691A1D3A61FA69111DF96112681A607B
:100030007A693B699A42F3D80C4BFB600C4BBB606E
:10004000FB687B6004E07B681A1D7A6000221A60FE
:10005000BA687B689A42F6D800F03AF8FEE7C046E4
:100060000404000800000020640000206400002058
:100070007000002080B584B000AF7860114B1B6821
:10008000002B02D10F4B104A1A600E4B1B68FB600D
:100090007B680333032293437B600A4B1A687B68B7
:1000A0009B00D218094B9A4200D900BE054B1A6832
:1000B0007B689B00D218034B1A60FB68181CBD4676
:1000C00004B080BD64000020700000200002002009
:1000D00080B582B000AF194B01221A60A023DB0566
:1000E0008022D2001A600C2000F040F8031C7B60D4
:1000F0007A68134B111C1A1C0D23081C111C1A1CA6
:1001000000F048F80DE00F4B20221A600E4B181C2F
:1001100000F01EF80B4B00221A600B4B181C00F06D
:1001200017F87A68094B101C191C00F0EDF8031E33
:10013000E9D00023181CBD4602B080BD2C1002403F
:100140006804000814000050400D03007804000803
:1001500080B582B000AF7860C0467B685A1E7A6076
:10016000002BFAD1BD4602B080BDC04608B5034B96
:10017000011C186800F05EF808BDC0466000002051
:1001800008B5034B011C186800F00EF808BDC04606
:1001900060000020002310B5934203D0CC5CC4540F
:1001A0000133F9E710BD000030B500293ED0043915
:1001B0000B68002B00DAC9181D4A1368141C002BA9
:1001C00002D14B60116031E099420DD208680A18E3
:1001D0009A4203D11368C3180B6053684B602160C7
:1001E00024E08A4203D8131C5A68002AF9D11D68FA
:1001F0005C198C420BD10968691858181960904233
:1002000014D110685268091819605A600EE08C42C7
:1002100002D90C23036009E008680C18944203D14A
:1002200014685268001908604A60596030BDC046C1
:100230006C000020032370B5CC1C9C430834051CC3
:100240000C2C01D20C2405E0002C03DA0C23002036
:100250002B6042E08C42F9D3204A1368101C191C11
:10026000002913D00A68121B0DD40B2A02D90A6088
:100270008B181FE08B4202D15A6802601BE04A686B
:100280005A600B1C17E00B1C4968E9E7144E3368F1
:10029000002B03D1281C00F025F83060281C211CFD
:1002A00000F020F8031C421CD0D00322C61C964349
:1002B00086420AD11C60181C07210B301A1D884386
:1002C000821A0AD05142995007E0311A281C00F0D6
:1002D00009F8431CBAD0331CECE770BD6C00002059
:1002E0006800002038B50023064C051C081C23605C
:1002F000FFF7C0FE431C03D12368002B00D02B6006
:1003000038BDC0467000002002780B78002A03D068
:10031000013001319A42F7D0D01A704738B50C1C21
:100320000968051C002901D0FFF7F8FF281C211CD3
:10033000FFF73AFF38BD0000314B70B51B6898429B
:100340005DD0436A041C002B1DD0DB68002B13D04A
:100350000025636ADB685959002905D00E68201C06
:10036000FFF722FF311CF7E70435802DF1D1636AD6
:10037000201CD968FFF718FF636A1968002902D0AA
:10038000201CFFF711FF6169002902D0201CFFF734
:100390000BFF616A002902D0201CFFF705FFA16B4B
:1003A000002902D0201CFFF7FFFEE16B002902D0DC
:1003B000201CFFF7F9FE216C002902D0201CFFF75A
:1003C000F3FEE16D002902D0201CFFF7EDFEA16DC8
:1003D000002902D0201CFFF7E7FE616B002902D044
:1003E000201CFFF7E1FEA369002B08D0201CA36AA4
:1003F0009847A16C002902D0201CFFF78FFF70BD29
:040400006000002078
:1004040000000000000000000000000000000000E8
:1004140000000000000000000000000000000000D8
:100424008504000800000000000000000000000037
:1004340000000000000000000000000000000000B8
:1004440000000000000000000000000000000000A8
:100454000000000000000000000000000000000098
:040464000000002074
:1004680048656C6C6F20576F726C64210000000047
:1004780048656C6C6F20576F726C642100430000F4
:040488000000002050
:10048C001000000000000000017A5200027C0E01F6
:10049C001B0C0D00100000001800000060FEFFFF98
:0804AC00140000000000000034
:0400000508000009E6
:00000001FF
