:020000040800F2
:10000000008001200900000880B588B000AF144BC3
:10001000FB61144BBB61144B7B61BB693B6107E027
:100020003B691A1D3A61FA69111DF96112681A607B
:100030007A693B699A42F3D80C4BFB600C4BBB606E
:10004000FB687B6004E07B681A1D7A6000221A60FE
:10005000BA687B689A42F6D800F038F8FEE700BF2D
:10006000C403000800000020640000206400002099
:100070007000002080B485B000AF7860104B1B6822
:10008000002B02D10E4B0F4A1A600D4B1B68FB6010
:100090000B4B1A687B689B0013440B4A934200D9B0
:1000A00000BE074B1A687B689B001344044A136028
:1000B000FB6818461437BD465DF8047B704700BFE7
:1000C00064000020700000200002002090B583B082
:1000D00000AF184B01221A60174A174B1B6843F4F4
:1000E000806313600C2000F041F803467B607B685E
:1000F000124A1C46134607CB20606160A2601B7841
:1001000023730BE00E4B20221A600E4800F01EF8FD
:100110000B4B00221A600B4800F018F878680A4967
:1001200000F0DEF80346002BECD0002318460C3715
:10013000BD4690BD3038024000000240280400084F
:1001400014000240400D03003804000880B483B05E
:1001500000AF786000BF7B685A1E7A60002BFAD12E
:100160000C37BD465DF8047B704700BF024B01466B
:10017000186800F04FB800BF60000020024B014635
:10018000186800F003B800BF6000002030B50029F7
:100190003DD051F8042C0B1F1D49002AB8BF9B18F5
:1001A0000A680C4612B95A600B6030BD93420DD2FA
:1001B00019685818904201BF5A5852181A6042687C
:1001C0005A60236030BD994203D80A46516800291D
:1001D000F9D1146815199D420AD11B682344D0181F
:1001E0008842136013D10868034413604B680DE024
:1001F00002D90C23036030BD1C681819884204BF63
:1002000008684968596004BF00191860536030BD20
:100210006C00002070B5CC1C24F0030408340C2CB6
:1002200038BF0C24002C064603DA0C233360002070
:1002300070BD8C42F9D3204A136810461946A1B10B
:100240000A68121B0ED40B2A03D90A608B188C5033
:100250001FE08B420DBF5A684A685A60026018BF9F
:100260000B4616E00B464968E9E7144D2B681BB9AD
:10027000304600F025F828603046214600F020F88E
:10028000421C0346D1D0C51C25F0030585420AD186
:100290001C6003F10B001A1D20F00700821A0AD01F
:1002A0005142995070BD3046E91A00F009F801300A
:1002B000BBD02B46ECE770BD6C000020680000202E
:1002C00038B5064C0023054608462360FFF7D2FEEA
:1002D000431C02D1236803B12B6038BD700000209D
:1002E00010F8012B11F8013B012A28BF9A42F7D0E0
:1002F000D01A704738B50C460968054609B1FFF7B2
:10030000F9FF28462146BDE83840FFF73FBF00000F
:100310002B4B1B68984270B5044650D0436AD3B14A
:10032000DB6893B10025636ADB68595929B10E680F
:100330002046FFF72BFF3146F8E70435802DF2D138
:10034000636A2046D968FFF721FF636A196811B113
:100350002046FFF71BFF616911B12046FFF716FF2A
:10036000616A11B12046FFF711FFA16B11B1204660
:10037000FFF70CFFE16B11B12046FFF707FF216C7F
:1003800011B12046FFF702FFE16D11B12046FFF7E2
:10039000FDFEA16D11B12046FFF7F8FE616B11B1B2
:1003A0002046FFF7F3FEA3694BB1A36A20469847A6
:1003B000A16C21B12046BDE87040FFF79BBF70BD26
:0403C00060000020B9
:1003C4000000000000000000000000000000000029
:1003D4000000000000000000000000000000000019
:1003E40045040008000000000000000000000000B8
:1003F40000000000000000000000000000000000F9
:1004040000000000000000000000000000000000E8
:1004140000000000000000000000000000000000D8
:0404240000000020B4
:1004280048656C6C6F20576F726C64210000000087
:1004380048656C6C6F20576F726C64210043000034
:040448000000002090
:10044C001000000000000000017A5200027C0E0136
:10045C001B0C0D00100000001800000078FEFFFFC0
:08046C00140000000000000074
:0400000508000009E6
:00000001FF
